:10000000E07F0010F5140000251500002715000002
:10001000291500002B1500002D1500000000000020
:100020000000000000000000000000002F1500008C
:1000300031150000000000003315000035150000E8
:100040003715000037150000371500003715000080
:100050003715000037150000371500003715000070
:100060003715000037150000371500003715000060
:100070003715000037150000371500003715000050
:100080003715000037150000371500003715000040
:100090003715000037150000371500003715000030
:1000A0003715000037150000371500003715000020
:1000B0003715000037150000371500003715000010
:1000C000371500003715000037150000000000004C
:1000D0000000000000000000000000000000000020
:1000E0000000000000000000000000000000000010
:1000F0000000000000000000000000000000000000
:1001000000000000000000000000000000000000EF
:1002F000000000000000000000000000FFFFFFFF02
:1003000008B50548054B1B1A062B00D808BD044B41
:10031000002BFBD09847F9E79009001093090010D3
:100320000000000008B50748074B1B1A9B1003EBA1
:10033000D373591000D108BD044A002AFBD090475E
:10034000F9E700BF900900109009001000000000BC
:1003500010B5064C237843B9FFF7D2FF044B13B115
:100360000448AFF300800123237010BD90090010F2
:100370000000000064A6000008B5074B1BB1074849
:100380000749AFF300800748036813B1064B03B178
:100390009847BDE80840C5E70000000064A60000DB
:1003A000940900109009001000000000134B002B6E
:1003B00008BF114B9D46A3F5803A00218B460F469E
:1003C0001148124A121A02F0C1FE0D4B002B00D048
:1003D00098470C4B002B00D09847002000210400C8
:1003E0000D000B4800F0FDFA02F0E2FC20002900AD
:1003F00000F00AFC00F0F2FA00000800E07F0010B4
:1004000000000000F90B000090090010D80C00104B
:100410003926000010B5084B044603F120020360A2
:100420007C3302634363303001F088FE204601F0E4
:1004300083FB204610BD00BFB0A20000A0F1340035
:10044000FFF7E8BFA0F13000FFF7E4BF10B50446A6
:10045000FFF7E0FF204600F0F5FA204610BDA0F1BE
:100460003400F3E7A0F13000F0E700001FB50020F2
:1004700001F0C0FC02F0C8FE02F0CEFEB42490FBF6
:10048000F4F303FB1400274D431C2B7002F0C4FE51
:1004900090FBF4F303FB1400431C6B7002F0BCFEF2
:1004A00090FBF4F303FB1400431CAB7002F0B4FEAA
:1004B00090FBF4F303FB1400431CEB7002F0ACFE62
:1004C00090FBF4F303FB1400A978441CE4B22C71F4
:1004D0006B782A780091E9780294134C01911348C3
:1004E000134901F03DFE2368013304D1114812493C
:1004F0002C2201F0FFF963691D6863681D402368C1
:10050000013304D10B480C49242201F0F3F90DB951
:10051000E36800E0236962684FF07E501A6001F0E2
:10052000B1FCA9E75C0A0010AC090010F409001046
:10053000B09B0000C89B0000E09B0000F7B5154C85
:100540001822154E2046002102F000FE4FF41657E7
:100550002046124901F0E3F8114D0023114C009799
:1005600030461149114A01F043FD3046104E2946EC
:10057000224600F031FA009730460E490E4A002319
:1005800001F036FD30462946224603B0BDE8F04072
:1005900000F022BAAC090010C409001032C00920D2
:1005A00015040000C800001002C0092003C0092083
:1005B000100A00100AC009200BC00920431C10B506
:1005C000044604D115220649064801F093F9204655
:1005D000002100F021FB012004F01F04A04010BD09
:1005E0001F9C0000CD9B000038B505464B1C0C46F7
:1005F00029600FD00846FFF7E1FF24F01F0404F143
:100600001803EB6004F11C032B6104F11403686010
:100610006B61AC6038BD006800F024BB38B503687E
:10062000044601330D4604D12C220A490A4801F040
:1006300061F915B1012D07D038BDA2686168136852
:1006400023EA0103136038BDA268616813680B4395
:10065000F8E700BF1F9C0000C89B000038B5036886
:10066000044601330D4604D124220549054801F012
:1006700041F9636815B1E268136038BD2269FBE790
:100680008C9C0000C89B000010B586B001F012FCE5
:100690001449684601F043F8042401216846FFF735
:1006A000DDFF962001F0FAFB00216846FFF7D6FF38
:1006B000962001F0F3FB013CEFD1042401216846B0
:1006C000FFF7CCFF4FF4C87001F0E8FB002168464B
:1006D000FFF7C4FF4FF4C87001F0E0FB013CEDD11F
:1006E000DAE700BF32C0092070B50D460446A0B05D
:1006F00001F0E0FB2B4622468021684604F076FBA1
:10070000051E03DC01F002FC20B070BD094B1B6824
:1007100023B9094A09490A4800F036FE0024084E68
:100720001DF804103046013400F092FDA542F7D1C7
:10073000E8E700BF780B001003C0092002C00920C1
:10074000CC0C00100FB407B504A951F8040B0191AB
:10075000FFF7CAFF03B05DF804EB04B07047000078
:1007600008B5084B1B685BB907490848084A00F000
:100770000BFEBDE808404FF41651044800F0D8BB0A
:1007800008BD00BF780B001002C00920CC0C00107F
:1007900003C00920022810B501DC002010BD002193
:1007A0000B4AC31E52F8230042F8231030B901F05F
:1007B00047FD092303604FF0FF3010BD03685B69FC
:1007C0009847041EE9DA01F03BFD64420460F2E759
:1007D000640A00100228F8B50D4614460EDC134BCF
:1007E0001B680BB9FFF7BCFF114E2F19BD4210D08B
:1007F00015F8011B304600F02BFDF7E70D4B0338D1
:1008000053F8200038B901F01BFD09234FF0FF34E5
:1008100003602046F8BD0368DB689847041EF8DAD9
:1008200001F00EFD63420360F3E700BF780B001098
:10083000CC0C0010640A0010022810B50C460BDC2A
:10084000104B1B680BB9FFF78BFF0F4800F0C0FC83
:1008500020700124204610BD0C4B033853F82000B3
:1008600030B901F0EDFC09234FF0FF340360F1E7EC
:1008700003689B689847041EECDA01F0E1FC6342D0
:100880000360E7E7780B0010CC0C0010640A00103E
:10089000022810B516DD0C4B033853F820402CB954
:1008A00001F0CEFC09230360204610BD23682046DA
:1008B000DB699847041EF7DA01F0C2FC6442046069
:1008C0000024F1E70124EFE7640A0010022810B5C4
:1008D00006DC01F0B5FC1D2303604FF0FF3010BDB6
:1008E0000A4B033853F8200018B901F0A9FC09237A
:1008F000F2E703681B699847041E04DA01F0A0FCC4
:1009000064420460E9E7204610BD00BF640A00109D
:10091000022838B50D4604DC4FF400534B6000202C
:1009200038BD0E4B033853F8204034B901F088FC31
:10093000092303604FF0FF3038BD23682046DB6990
:100940009847002814BF4FF400534FF400436B60E6
:10095000236820469B6A98472861E0E7640A0010F4
:1009600008B5012000F03AF80C4A10B51368184495
:10097000EFF30881884205D30C22094B4FF0FF307A
:100980001A6010BD07490C6824B107490968214461
:100990008842F1D21060184610BD00BFCC00001094
:1009A000D40C00106C0B0010700B0010094C08B533
:1009B00023680546986801F04BFD2368D86801F06C
:1009C00047FD01F0DBFA08B101F0DAFA0DB1FFF7EB
:1009D0005BFEFEE7100500100120704708B5FFF729
:1009E000E5FF01207047002102F0CABC1FB50422B8
:1009F0000C463A230DEB020101900DF109008DF830
:100A0000083002F0C7FA214602A801F071FE044640
:100A100038B101980368DB69984710B12046FFF7A9
:100A2000E2FF204604B010BD7047704708B5FFF7DD
:100A3000FBFF08BD08B5FFF7F8FF08BD08B102F0DD
:100A400057BA7047FFF7FABF034653F8042B10B5A7
:100A5000044602B9036022689A4204D05B2203492B
:100A6000034800F047FF206810BD00BF0E9D000046
:100A7000719D000010B504460948FFF7E5FF00230B
:100A80001946084A52F82300A04208BF42F8231032
:100A90000133402BF6D10248FFF7D6FF10BD00BF4F
:100AA000640B0010640A00102DE9FF478946404995
:100AB000064602F02FFD044628B9FFF751FE2046F6
:100AC00004B0BDE8F0873B49304602F023FD18B979
:100AD000FFF746FE0124F2E73749304602F01AFDDF
:100AE00018B9FFF73DFE0224E9E7344D3448FFF71B
:100AF000ABFF0024A84655F82470002F40D00134E5
:100B0000402CF8D101F09CFB182303602C48FFF720
:100B10009BFF0EE0314602A800F0FEFE02A800F0A6
:100B20003FFF064640B901F08BFB0223036045F806
:100B300024604FF0FF34C2E702A800F01FFF074611
:100B400002A81FB100F023FF01902BE000F00DFF81
:100B500006460028E7D0036802A8D3F808A000F0F2
:100B6000F9FE29F48033024601A93046D0470646F3
:100B7000C0B101F065FB7642066045F82470D8E705
:100B80004FF0FF330E4845F82430FFF75DFF337810
:100B900001973A2BBED10422711C02A802F0FAF987
:100BA000029B0193019B48F82430033487E700BF80
:100BB0008D9D0000949D0000859D0000640A00103A
:100BC000640B00107047704770470000074B10B56A
:100BD0009A6807490748043A52F8044F41F8044F0D
:100BE0008142F9D14FF080529A6010BD00ED00E0D3
:100BF000FCFFFF0FC000001008B5FFF7E7FFFFF78D
:100C0000E2FFFFF7E1FF08BD08B5FFF7DBFFBDE836
:100C10000840FFF72BBC000038B5431C04460D46C6
:100C200004D115220D490E4800F064FE04F1604025
:100C3000A0F51C204200030903209B0003F1804320
:100C400003F53033196802F01E02904021EA0001DA
:100C50001960196895400D431D6038BD9C9D0000CA
:100C6000CD9B000038B5431C05460C4604D120221C
:100C70001749184800F03EFE05F16040A0F51C2021
:100C800043099B0003F1804303F530339D6EC4F3A9
:100C9000800100F01F0201FA02F225EA02059D66BA
:100CA0009D6E2A439A6691B94200030903209B0076
:100CB00003F1804303F53033196C02F01E029040BB
:100CC00021EA00011964196C94400C431C6438BD7E
:100CD0009C9D0000CD9B0000074AD2F8C43043F42D
:100CE0000073C2F8C4300022044B1A721A7A42F020
:100CF00001021A72704700BF00C00F40004002405E
:100D0000024B187A00F00100704700BF004002401B
:100D100000B50E4B8BB093F8202001A8019293F8F8
:100D20002420029293F82820039293F82C20049216
:100D300093F838209B8F013A9BB2A3F26C73059213
:100D4000069300F0A3FF0BB05DF804FB00400240E7
:100D500000B58BB001A900F0CFFF10B3124B1A7A87
:100D600042F002021A729DF8042083F820209DF8B8
:100D7000082083F824209DF80C2083F828209DF873
:100D8000102083F82C20059A0132D2B283F8382043
:100D9000069A02F26C7292B29A871A7A02F0FD02F7
:100DA0001A720BB05DF804FB0040024030B52A4BCC
:100DB00004689C4224D006DCA3F580439C420CD0FE
:100DC00000231D460BE0254B9C421CD003F58043BD
:100DD0009C42F5D1224B082501E00525214BAAB103
:100DE0000122606802FA01F1014361601E4905F1C8
:100DF00010008968AA4041F820301C4B1A6030BDB1
:100E00001B4B0625EBE71B4B0725E8E701290AD01A
:100E100042683820184B00FB023292F8363092F8C4
:100E20003520D34216D1012303FA01F2B1FA81F140
:100E30006068490920EA02006060626803FA01F113
:100E4000114207D1094AAB40C2F88030BFF34F8F3F
:100E5000BFF36F8F30BD00BF00000140008009402C
:100E60001D0F0000E10E000000ED00E000E100E0D9
:100E7000F50E0000090F00007C0B0010012810B4D3
:100E800008D0022808D010BC7047506820F001003C
:100E9000506010E003460EE038230F4803FB0103C7
:100EA0005868013006D018699C68046093F83630A1
:100EB000002BEAD0002338225143074842184058FB
:100EC0000028E0D01BB992F83620002ADBD0034A74
:100ED0001946126810BC10477C0B0010740B0010F0
:100EE000034A00219068C0F34200FFF7C7BF00BF6C
:100EF00000C00040034A01219068C0F34200FFF7A0
:100F0000BDBF00BF00000140034A02219068C0F34A
:100F10004200FFF7B3BF00BF00800940034A03212E
:100F20009068C0F34200FFF7A9BF00BF00C00940AE
:100F30002DE9F04F754A0E4601688DB0914205903B
:100F400004DD9B227249734800F0D4FC059B724972
:100F50001A688A4200F09C8079DCA1F580418A42BF
:100F600000F088806D4AD2F800903201B9FBF2F5AA
:100F7000ACB202FB1595002D00F0BF804FEA49038B
:100F800008934FEA89030793079A012703920022E7
:100F900033462146DDF820B0CDF810900696029732
:100FA00001921A464FF000085FFA87FABBF1000F72
:100FB000ABBF0398BBFBF2F4B0FBF2F42409A8BF6B
:100FC00064090134C4F34F045FFA88F5002C00F083
:100FD0009780B8F1000F02D0012C08BF022407EB64
:100FE000080060430A93049BC000B3FBF0F001309B
:100FF000C6EB50000B92099101F01EF9069B09996E
:1010000098420B9A0A9B62DA86425BD10F2F07D176
:101010002146CDF808A001950C46DDF808A0019DF9
:10102000059B45EA0A151B68EDB21A7B42F0800267
:101030001A73C4F30722E4B21A711C7083F82850A3
:101040001A7B02F07F021A730DB0BDE8F08F3449AD
:101050008A4229D001F580418A4283D1314AD2F8AF
:10106000AC1121F44021C2F8AC11D2F8AC1141F41A
:10107000802124E02B4AD2F8A81121F0C001C2F847
:10108000A811D2F8A81141F04001C2F8A81169E7EF
:10109000244AD2F8A81121F44071C2F8A811D2F85C
:1010A000A81141F48071F0E71E4AD2F8AC1121F486
:1010B0004031C2F8AC11D2F8AC1141F48031C2F821
:1010C000AC114FE721460690CDF808A0019508F134
:1010D00001085FFA88F050453244FFF467AF0F2FE4
:1010E0009AD0049A07984A440492089A0137934484
:1010F000039A33440244039253E74FF0010A8FE707
:10110000B8F1000F0CBF0124022468E700C00940B9
:101110002C9F00009B9F000000000140D0000010A9
:101120000080094000C00F40F8B55E1E012E074642
:101130000C46154604D9FB221349144800F0DAFB8B
:10114000053C032C04D9FC220F49114800F0D2FBC6
:10115000042D04D9FE220C490E4800F0CBFB013DC2
:10116000EDB2032D8BBF002301221A460A4B44EA3D
:10117000860498BF5B5744EAC204396844EA031402
:10118000E4B20C73F8BD00BF2C9F0000B49F0000B8
:10119000D99F0000FC9F0000079E0000034B1960D0
:1011A000382341684B430249CA507047740B001002
:1011B0007C0B001030B431B938254368034C05FB73
:1011C000034383F8362030BCFFF7F0BD7C0B0010E2
:1011D00010B50268137DDB07FCD538244368084846
:1011E000117804FB03035868C9B2013006D058696E
:1011F0009B680360536843F001035360084610BDC9
:101200007C0B00103821114A436801FB0323DA6983
:10121000013209D01A6B1B6A12681A4214D1036892
:10122000187DC0F3801070470268127D920604D5C5
:101230000022012083F83420704793F834000F28EF
:101240008CBF002001207047002070477C0B0010ED
:1012500038B504460D462046FFF7D4FF0028FAD0E3
:1012600038212368EDB21D706368044A01FB032333
:1012700093F83420013283F8342038BD7C0B001001
:101280002DE9F84F9A463C4C03680546A34218BF27
:1012900000248946904647681CB1237C03F03F0335
:1012A000237438234FF0FF32344E284603FB076384
:1012B000DA615A60002283F835201146FFF776FD87
:1012C000B9F1000F55D02E49404600F059FA2D498A
:1012D0008346504600F054FAA9F10203012B1BD8B3
:1012E000BAF1FF3F0BD0244B98420DD164B1237C5F
:1012F000244943F080032374504600F013FAB9F1F7
:10130000030F0CD0BDE8F88F382000FB0760514672
:101310001C3000F0EAF9F2E7B9F1010F29D1B8F178
:10132000FF3F01D1BDE8F88F07222B681A72124BDC
:101330009B450AD14CB1237C404643F040032374C3
:101340000F49BDE8F84F00F0EDB9382404FB076001
:1013500041460022043000F0CBF901226B68284698
:1013600004FB036686F835200021BDE8F84FFFF73F
:101370001DBDBDE8F88F00BF000001407C0B0010D0
:10138000309E00000C9E00002DE9F8430F460546F4
:101390004D493846164600F0FFF94C4904463046A0
:1013A00000F0FAF90146204600F0D8F9411C044645
:1013B00004D15C224649474800F09CFA464B2C6019
:1013C0009C4263D04DD8A3F580439C4256D04FF049
:1013D00001094FF0000884F808904FF41651284690
:1013E000C4F80480FFF7A4FD42464B460821284676
:1013F000FFF79AFE3449384600F094F933493046F5
:1014000000F090F97A1C03D041463846FFF72AFCD9
:10141000731C03D000213046FFF724FC2E4B9C4266
:101420004CD03FD8A3F580439C4244D038216A6811
:101430002A4B284601FB02324FF0FF330021536054
:10144000D3611A46FFF71CFF254B9C423AD101227B
:10145000244B29461A6024480822BDE8F84301F0CD
:1014600099BD224B9C4217D003F580439C42AED1DC
:101470001F4AD2F8C43043F0007304E01C4AD2F88B
:10148000C43043F00803C2F8C430A0E7184AD2F8C9
:10149000C43043F01003F6E7154AD2F8C43043F0E5
:1014A0008073F0E7114B9C420AD003F580439C42C5
:1014B000BCD1032300E000236B60B7E70123FBE707
:1014C0000223F9E7BDE8F883C09E0000549E0000A7
:1014D0002C9F000080A00000000001407C0B001049
:1014E00000C00040780B0010CC0C001000800940B8
:1014F00000C00F400649074A074B9A42BEBF51F849
:10150000040B42F8040BF8E70448804704480047FE
:10151000A8A60000C80000109009001039150000AE
:10152000AD030000FEE7FEE7FEE7FEE7FEE7FEE7AD
:10153000FEE7FEE7FEE7FEE72022264BC3F8A021E8
:10154000D3F8A021920603D5D3F8A0215006FBD5ED
:101550000222C3F8042100220120C3F8A821C3F805
:10156000AC210B22C3F80C01AA21C3F88420552218
:10157000C3F88C10C3F88C20C3F88000C3F88C101B
:10158000C3F88C20134B1A46D3F888104901FBD5B9
:101590000321C3F88010AA21C3F88C105521C3F889
:1015A0008C10D2F8883013F0407FFAD00523C2F8AF
:1015B0000831094BC2F8C4300023C2F8C83113689F
:1015C00023F4704323F03A0343F4405343F03A03C7
:1015D0001360704700C00F40DE872804104B186866
:1015E000E0B901210F4A1960D2F8C43043F4000376
:1015F000C2F8C430A2F5D022106702200A4B1B6843
:1016000050600A48B3FBF0F3013BD360084B5160D4
:101610009B68084A1A651022074B1A60704700BF82
:101620005C0C001000C00F40D000001000093D000D
:1016300000ED00E0C117000000E100E008B5044B38
:101640001B680BB9FFF7CAFF024B986808BD00BFC3
:101650005C0C001000400940034B98615A6942F04D
:1016600001025A61704700BF004009401022024B3E
:10167000C3F80021704700BF00E100E0024A53694F
:1016800023F0010353617047004009400122014BE0
:101690001A6070470040094038B5036804460133BA
:1016A0000D4604D124220549054800F023F963685A
:1016B00015B1E268136038BD2269FBE78C9C00001D
:1016C000C89B000070B50E4604461546FEF78CFF19
:1016D000013609D020460021FEF7A0FF294620460A
:1016E000BDE87040FEF797BF70BD0322FFF7EABF69
:1016F00070B50E4604461546FEF776FF01360DD04E
:1017000029462046FFF7C8FF20460121FEF786FF45
:101710002046BDE870400221FEF77DBF70BD00226B
:10172000FFF7E6BF10B5044601300DD110BD9C4255
:1017300009D120468968FFF76FFA2046BDE81040BE
:101740000221FFF78FBA0C310B685A1CEFD1024807
:10175000BDE8104000F070BBC1A00000884208B591
:1017600008D0431C06D0013106D0044800F064FBC9
:101770004FF0FF31084608BD0146FBE790A000008E
:101780000B685A1C01D118467047834201D1486842
:1017900070470C31F4E70000421C10B5044607D036
:1017A000FFF7EEFF431C044602D1024800F044FB61
:1017B000204610BDA1A0000000487047D4A0000042
:1017C000014800F063B800BFD4A000000368D0B5A2
:1017D00044685B68D4E9026798470022B04242EA55
:1017E00000023B4602D2003247F10103C4E9022362
:1017F000D0BD2DE9F0410646FFF7E8FF7268376873
:101800005368D2E902012BB3D3E90023994208BF00
:10181000904203D37B69BDE8F0411847141A63EB8B
:101820000105002D08BFB4F1E04F13D2121A84183D
:101830003B69204641F1000598473046FFF7C6FF57
:101840007368D3E90223AB4208BFA24205D33368D1
:101850005B69E0E74FF0E042E9E7BDE8F08103684B
:1018600010B504461B6898470022636800201A6080
:101870005A6000210122C3E902011A742046FFF7D1
:10188000A5FF2046BDE81040FFF7B3BF036870B561
:10189000DB680446984763685B68A3B12046FFF79E
:1018A00095FF65686E68D5E90201D6E90023994283
:1018B00008BF904207D3F3686B602B68002BEAD017
:1018C000B0689847E7E72046BDE87040FFF791BF52
:1018D000436810B51B7C04460BB9FFF7C0FF2046D8
:1018E000FFF774FF6368D3E9020110BD08B5FFF785
:1018F000EFFF08BD70B504460D46164600F0DAFA53
:1019000033462A4621460348FEF71CFFBDE87040D7
:10191000FEF7BABEF4A00000002310B503604360D8
:101920000A7804462F2A0DD14A785AB1481C194624
:10193000206023681A782F2A06D10133236000F033
:1019400085F96060204610BD002AF8D001330131CE
:101950002360EEE700687047406808B520B100F0EA
:1019600024F9431E5842584108BD10B50446FFF7FC
:10197000F3FF10B1606800B1043810BD406808B5CD
:1019800020B100F012F9B0FA80F0400908BD10B59E
:101990000446FFF7F3FF10B1606800B1043810BDD2
:1019A0004068003018BF0120704770477047000042
:1019B000090170B501F10C050544EB6873B14418D9
:1019C000A3692BB940F20E2205490648FFF792FFA2
:1019D000A3692846BDE870401B68184770BD00BF6A
:1019E00025A1000084A100000430FFF7F1BB10B571
:1019F0000C460430FFF72CFC204610BDC36810B520
:101A000004460BB19B689847204610BD884238B504
:101A100004460D460AD0FFF7F1FF3CB1EB681BB15D
:101A20005B68294620469847EB68E360204638BD4E
:101A30002DE9FF47044600259A46884691461F4BEC
:101A400000F10C07036045608560294604F11C061F
:101A50001022384601F07AFB29461022304601F068
:101A600075FB10222946C4F82CA0684601F06EFBD5
:101A700069463846FFF7CAFF6846FFF7BFFF1022E6
:101A80002946684601F062FB69463046FFF7BEFF13
:101A9000251D6846FFF7B2FF4A4641462846FFF734
:101AA00073FCE16A2846FFF743FA284622460449B8
:101AB000FFF774FB204604B0BDE8F08794A1000056
:101AC000B11900002DE9FF41064688461746054634
:101AD00056F8043B3C011B68984700F0EBF9D8F836
:101AE0000C300C342C44ABB1E3680BB900F056FB5E
:101AF00041462046FFF78AFF012239463046FFF76C
:101B000059FB00F003FA2B6828465B68984704B03D
:101B1000BDE8F081E3680BB100F05AFB1022002110
:101B2000684601F013FB69462046FFF76FFF6846E1
:101B3000FFF764FF0022E0E77FB50446154B102253
:101B400003600021684601F001FB0022694620463F
:101B5000FFF7B8FF6846FFF751FF102200216846E3
:101B600001F0F4FA012269462046FFF7ABFF684610
:101B7000FFF744FF14F10C0608D004F12C05B54220
:101B800004D0103D2846FFF739FFF8E7204604B09F
:101B900070BD00BF94A1000010B50446FFF7CCFF54
:101BA0002046FEF74FFF204610BD007B7047000027
:101BB00038B50B4B0446036000230D464360A1601B
:101BC00002730848FEF740FF45B1074B1A681C60D6
:101BD00062600448FEF738FF204638BD6560F8E7CC
:101BE000ACA100007C0C0010780C001010B504466D
:101BF0000E4B03600E48FEF727FFA3682BB10D4A7A
:101C000013689C420CD1636813600948FEF71CFFFF
:101C1000237B13B9201FFEF72DFF204610BD13466E
:101C20005A689442FBD162685A60EEE7ACA10000AA
:101C30007C0C0010780C001010B50446FFF7D6FF9E
:101C40002046FEF7FFFE204610BD000070B5064698
:101C50000C480D46FEF7F8FE0B4B1C685CB1A06803
:101C600070B12A46314601F061FD48B9A06801F023
:101C70002FFD854204D10348FEF7E6FE204670BDE5
:101C80006468EBE77C0C0010780C0010426970B5BA
:101C9000A2F14604442C28D84FF461658668416857
:101CA00075433C2606FB01510368114D1944C36876
:101CB00012F0030F03F1FF3305FB03130CBF0C21DC
:101CC00000210069462A01440A4850F821001844BE
:101CD00008D040F26D13013A9210113A03FB04222E
:101CE00005FB020040EAE07070BD4FF0FF3070BDB0
:101CF00080510100B4A100000028F0B55CDB3C235A
:101D000090FBF3F403FB14020A6094FBF3F203FB71
:101D100012434B604FF46163182490FBF3F393FB81
:101D2000F4F204FB12338B60244B90FBF3F0072397
:101D3000021D92FBF3F3C3EBC303D31A8B6146235B
:101D40004B614B6913F0030607D1B0F5B77F0DDB8C
:101D500001334B61A0F5B770F3E7B0F5B67F05DD51
:101D600001334B616FF4B6731844EAE7134BC86153
:101D700058430B23124C0B610C2700232546B6FA5F
:101D800086F2520907FB023E54F82EE086450FD931
:101D9000013B0B610C240B6904FB023255F8223025
:101DA000C01A064B90FBF3F00130C8600120F0BD73
:101DB00001330C2BE3D1EDE70020F0BD8051010091
:101DC000B4A1000010B504460748FEF73DFE074BDE
:101DD0001B6803B19847064B1B680BB12046984718
:101DE0000148FEF731FE10BD840C0010DC0000102D
:101DF000D400001038B505460C48FEF725FE0C4B04
:101E00001B681BB1984708B9FFF7DCFF094B1B683B
:101E100043B19847044605B12C600448FEF714FE10
:101E2000204638BD4FF0FF34F5E700BF840C0010AA
:101E3000D8000010E00000100FB413B5084B1A785A
:101E40004AB9012405A904981C700191FEF74CFCC5
:101E50002046FEF7C3FD02B0BDE8104004B0704755
:101E60008C0C001070B50446FFF7A6FC0646FFF781
:101E70003DFD05463046FFF739FD401BA042F9D332
:101E800070BD000008B5044906F050FC06F09EFD48
:101E9000BDE80840FFF7E6BF002474494FF47A73A9
:101EA0005843FFF7DFBFEFF31080C04300F001009D
:101EB0007047000038B5FFF7F6FF054672B60E4CC6
:101EC000236823B980F001030C4ADBB21370236846
:101ED000013304D143220A490A48FFF70BFD236866
:101EE0002BB125B1472206490748FFF703FD2368B8
:101EF0000133236038BD00BF900C00108D0C001022
:101F000014A200006DA2000093A2000010B50A4CBC
:101F1000236883B1FFF7C7FF20B15822074908485B
:101F2000FFF7E8FC2368013B236023681BB9054BDE
:101F30001B7803B962B610BD900C001014A200000B
:101F400093A200008D0C001038B505460C46FFF733
:101F5000B1FF29880C44A4B22C80FFF7D7FF20469C
:101F600038BD70B505460E46FFF7A4FF2C88A41BAC
:101F7000A4B22C80FFF7CAFF204670BD00F00CB859
:101F800030B585B06D46182420462946ABBE0446C0
:101F9000204605B030BD0000024B186800F001007B
:101FA000704700BFF0ED00E003681B691847036845
:101FB0009B69184703689B6A18474FF0FF307047CA
:101FC0001120704770477047A0F13000FFF7FBBF4A
:101FD000A0F13000FFF7F7BFFFF706BDA0F130001A
:101FE000FFF7FABFFFF703BDA0F13000FFF7FABF1C
:101FF00038B504461D46049BFFF71AFD294604F137
:10200000300000F073F8054B204603F1080222600F
:1020100003F1280284332263636338BDA8A2000061
:102020000020704700207047036801221B690021CF
:1020300018470022036811461B691847704770470C
:10204000F8B50E4603680446DB6C8F183546984792
:10205000BD4207D0236815F8011B5B6C20469847EA
:102060000130F5D1236820461B6D9847A81BF8BDA9
:10207000F8B50E4603680446DB6C8F183546984762
:10208000BD4208D0236820469B6C9847431C02D071
:1020900005F8010BF4E7236820461B6D9847A81B41
:1020A000F8BD00207047704700207047002070473F
:1020B00010B50446044B03604C3340F8043FFFF76F
:1020C00095FD204610BD00BF3CA30000A0F1040018
:1020D000EEE700BF10B50446FFF7EAFF2046FEF723
:1020E000B1FC204610BDA0F10400F3E710B5044692
:1020F0000E4B002240F8043BFFF75AFD0C4B0D49F4
:1021000023605C33636000232046636100F091F834
:10211000606118B1FEF767FC204610BD00F090F832
:1021200001680548FFF788FEF6E700BF7CA40000C1
:10213000BCA3000090A3000093A3000010B50446C8
:10214000064B03F10802643302604360406900F00B
:10215000BDF82046FFF7ACFF204610BDB4A3000039
:102160000EB477B50446036807AD55F8046BDB6C15
:1021700098476069019500F06BF9019A31466069F2
:1021800002F0C0FD0546236820461B6D984728468F
:1021900003B0BDE8704003B07047000008B5FFF71A
:1021A00089FE094B1A884FF6FF739A4204D1FFF754
:1021B000ADFE0648FFF740FE01210348FFF7C4FECD
:1021C000BDE80840FFF7A2BE940C001020A4000058
:1021D00008B5FFF76FFE084B1B8823B9FFF796FE83
:1021E0000648FFF729FE01210348FFF7BAFEBDE8C4
:1021F0000840FFF78BBE00BF940C00104DA40000F8
:10220000036870B51B690122002104469847051E2A
:102210000DDB236802221B690021204698470646F1
:10222000236829461B6900222046984735462846E0
:1022300070BDFEF7DBBB00000028B8BF404270470E
:10224000014B1868704700BF1005001070B50C46B0
:10225000054631B110B1836B002B2FD0B4F90C308F
:102260000BB9002070BD2846214600F037F8E36A1C
:10227000064633B12846E16998470028B8BF4FF0B9
:10228000FF36A3891B061CD4216B41B104F1400326
:10229000994202D0284606F0A3FE00232363616C16
:1022A00021B1284606F09CFE0023636400F0C0F9CB
:1022B0000023A38100F0BEF9304670BD00F0F8F8AD
:1022C000CCE72846216906F08BFEDDE7024B01468C
:1022D0001868FFF7BBBF00BF100500108B892DE900
:1022E000F0419AB20D46110780463CD46A6843F427
:1022F0000063002AAB8159DDAC6A002C4BD09BB245
:1023000003F48052002192B2D8F80060C8F800109F
:10231000002A4FD02A6D5F0705D569682B6B521ACA
:102320000BB1EB6BD21A4046E9690023A047441C6D
:102330004AD0AB892A6923F400639BB200212A604A
:10234000DA04AB8169604CD4296BC8F8006011B322
:1023500005F14003994202D0404606F041FE0020BC
:102360002863BDE8F0812E69AEB191072C680CBFDF
:102370006B6900232E60A41BAB600AE03246234643
:102380006F6A4046E969B8470028C0EB0404064478
:1023900004DD002CF2DC0020BDE8F081AB894FF0B9
:1023A000FF3043F04003AB81BDE8F081EA6B002AC7
:1023B000A2DCF0E701234046E969A047431C02463E
:1023C0001ED0AB89AC6AA6E7D8F800305BB9AA8901
:1023D000296922F4006292B26B60D304AA81296059
:1023E000B2D52865B0E71D2B01D0162B13D1A989D2
:1023F0002B6921F400610022A9812B606A60A3E7A8
:10240000D8F80030002BDCD01D2B01D0162BC5D105
:10241000C8F80060BFE7AB8943F04003AB81BDE87B
:10242000F08100BF10B5044682B008B1836B53B190
:10243000B1F90C0008B902B010BD204602B0BDE8E9
:102440001040FFF74BBF019100F032F80199EFE720
:1024500020B1054B01461868FFF7E4BF034B044960
:10246000186800F07FBC00BF10050010C4A4000075
:1024700025240000014900F075BC00BF4D2200007A
:1024800070B54B1E682505FB03F50E4605F174017A
:1024900006F0A2FD044640B100210C30666005F153
:1024A00068022160A06000F051FE204670BD00BFB0
:1024B0002DE9F04F846B83B00746002C65D17D6811
:1024C00033480423032107F53B72F863C7F8E4128D
:1024D000C7F8E822C7F8E04205F15C00AB812C6048
:1024E0006C60AC606C66EC812C616C61AC61214607
:1024F000082200F02BFEDFF89CB0BE68DFF898A041
:10250000DFF89890DFF8988001230922ED61C5F883
:1025100020B0C5F824A0C5F82890C5F82C80214625
:10252000F381B28134607460B46074663461746144
:10253000B461082206F15C00019300F007FEFD681B
:1025400012200222F661C6F820B0C6F824A0C6F810
:102550002890C6F82C802146A881EA812C606C6006
:10256000AC606C662C616C61AC6105F15C000822AA
:1025700000F0ECFD019BED61C5F820B0C5F824A08A
:10258000C5F82890C5F82C80BB6303B0BDE8F08F78
:102590007524000091340000B5340000ED340000D3
:1025A0000D350000214B70B51D680646AB6B002B46
:1025B0002CD005F538756B68AC68013B05D521E07A
:1025C000013B5A1C04F168041CD0B4F90C20002A09
:1025D000F6D1002501234FF6FF72E281A3816566E3
:1025E0002560A560656025616561A561294604F1E6
:1025F0005C00082200F0AAFD256365636564A5649C
:10260000204670BD2B682BB11D46D4E72846FFF746
:102610004FFFCEE730460421FFF732FF286008B1B4
:102620000546C8E70C23336070BD00BFC4A400009A
:10263000704700BF704700BF38B5094D094C641B97
:10264000A41018BF05EB840505D0013C55F8043DE6
:102650009847002CF9D1BDE8384007F0A3BA00BF75
:102660008C09001090090010F0B583B00F46114698
:1026700001AA064603F060FC0546E8B13046FFF7C4
:1026800091FF0446C0B139463046019A4FF4DB73DE
:1026900000F0A6FD00281BDB114B124F1249134A14
:1026A000E362EB05E081A581E46127626162A262D9
:1026B00005D4204603B0F0BD002003B0F0BD304685
:1026C00021460022022300F01BF8204603B0F0BD93
:1026D0000025FFF7ADFFA581FFF7ACFF2846E9E72E
:1026E0000D35000091340000B5340000ED340000D9
:1026F000024B0A4601461868FFF7B6BF10050010E6
:1027000000F000B82DE9F04F0C4691B091461E46FE
:10271000054610B1836B002B72D0A38903F4847338
:10272000B3F5847F74D0A76A002F00F05081012E8A
:102730004AD0022E08D03EB116232B604FF0FF384E
:10274000404611B0BDE8F08F4FF0000A2369D04633
:10275000002B00F02681A08940F61A0381B20B40BD
:1027600043B949055FD49C4B9F4200F0078140F478
:102770000060A08128462146FFF754FE80460028CD
:10278000DCD14A4633462846E169B8470130D5D006
:10279000216B41B104F14003994202D0284606F072
:1027A0001FFC00232363A2892369002122F4026213
:1027B000A2812360616004F15C00082200F0C6FC85
:1027C000404611B0BDE8F08F28462146FFF72AFEAB
:1027D000A38903F4805292B2002A00F0C480D4F896
:1027E00050805E0760D4180740F1BB8022682369DF
:1027F0000AB1D21A9044C1444FF0010A0026A7E75B
:10280000FFF756FEA38903F48473B3F5847F8AD15E
:1028100028462146FFF706FE85E7A2894FF480632C
:102820001A43A281E364002E49D1CB46BAF1000FCE
:1028300054D1A389DA0440F1B980206D6268216B1C
:10284000C2EB0008002900F0BA80D4F83CE0CEEBDF
:102850000808A36B206990441B1AC3EB0808734453
:10286000C34542DB08EB030293453ED2C8EB0B089D
:102870004044C8EB030384E8090041B104F140037C
:10288000994202D0284606F0ABFB00232363A389BC
:1028900004F15C0023F02003A3810021082200F052
:1028A00055FC4FF000084BE76268236BC2EB080849
:1028B000002B56D0E26B2369C2EB08089BE7284641
:1028C000B4F90E1001AA00F089F800287FF452AF85
:1028D000059B09EB030BBAF1000FAAD0216B6268CC
:1028E00000296CD0D4F83CE0B3E7E36C28465B42A7
:1028F0000BEA03084246E1690023B84701303FF480
:1029000039AF2369216B00222360626041B104F179
:102910004003994202D0284606F062FB002323635D
:10292000A389BBEB080B23F02003A38110D028461A
:10293000214600F09BFC00287FF41CAF63689B4598
:102940003FF618AF2268CBEB03035A4484E80C002F
:1029500004F15C000021082200F0F8FB4FF00008B1
:10296000EEE6236947E733462846E169B847B0F108
:10297000FF3F80463FF4E2AEA38932E7B4F90E1080
:102980000029FFF6F4AE284601AA00F027F830B976
:10299000029B03F47043B3F5004F3FF43EAFA089B0
:1029A000E5E62846214600F02BFAD4E601235246FC
:1029B0002846E169B847431C7FF440AFDAE6236854
:1029C000206900211B1AC3EB0808134448E71D23A4
:1029D0002B604FF0FF38B3E6ED34000038B5084CFB
:1029E00000230546084611462360FDF791FF431C6E
:1029F00000D038BD2368002BFBD02B6038BD00BF52
:102A0000D40C00102DE9F04F936883B01646814630
:102A10000C462BB38B89190726D5226922B303F004
:102A2000020292B23568002A2CD04FF0000ADFF87B
:102A3000E8B2D046D84534BF43465B465246484686
:102A4000B8F1000F4FD0E169676AB847002856DD3A
:102A5000B36882441B1AC0EB0808B360002BE9D1AD
:102A6000002003B0BDE8F08F4846214602F038FA56
:102A7000002840F04881A389356803F0020292B231
:102A8000002AD2D113F0010A42D1D046B8F1000F8A
:102A900023D09A05A76876D5B845C0F0A48013F472
:102AA000906F40F0B2802068BB4651465A4600F015
:102AB000E7FAA2682168D21B01EB0B03A260236036
:102AC0004246B36892449B1AC2EB0808B360002BDD
:102AD000C6D0A389B8F1000FDBD1D5F800A0D5F896
:102AE00004800835D2E7D5F800A0D5F80480083571
:102AF000A0E748462146FFF795FC002859D0A38956
:102B000043F040034FF0FF30A38103B0BDE8F08FE6
:102B10009246019293469046B8F1000F2BD0019F48
:102B2000002F64D020682169C24534BF5346434614
:102B300088421F46D4F808C0626903D994446345AB
:102B400000F3AE80934236DB1346676A4846E1697C
:102B50005A46B847071ED2DDBAEB070A3AD0B36827
:102B6000BB44DB1BC7EB0808B360002B3FF478AF16
:102B7000B8F1000FD3D10027D5F800B0D5F8048004
:102B800001970835C8E720682369984202D863692D
:102B9000984572D2B84538BF47463A46514600F08C
:102BA0006FFAA3682268DB1B3A44A3602260002B03
:102BB0009FD03A4685E71A465946009300F060FADE
:102BC000009BA1682268C91ABAEB070A1344A160E6
:102BD0002360C4D148462146FFF724FC00288ED14B
:102BE000CDF804A0BBE720684746C3465DE75846DA
:102BF0000A21424600F084F900287FD000F1010A42
:102C00000127CBEB0A0A01978CE7226821696769E3
:102C1000C1EB020C07EB47070CF1010207EBD7777A
:102C200042447F10974234BF17463A465B054FD562
:102C300011464846CDF800C006F0CEF9DDF800C0D8
:102C40008346002862D062462169CDF800C000F0BA
:102C5000A1F9A289DDF800C022F4906242F080025E
:102C6000A2810BEB0C00CCEB0702C4F810B067613B
:102C70002060A2604746C34617E76FF000429045C8
:102C800038BF424692FBF3F202FB03F3676A484601
:102C9000E1695246B84700287FF731AF024610E796
:102CA00062465946CDF800C000F0EAF9DDF800C0F0
:102CB00023684846634423602146CDF800C0FFF7EF
:102CC000B1FBDDF800C000287FF419AF674643E789
:102CD0004846CDF800C006F081F9DDF800C0834613
:102CE0000028BED14846216906F07AF9A3890C2252
:102CF00023F080039BB2C9F8002001E7012708F107
:102D0000010A01970EE74FF0FF30AAE60C23C9F83D
:102D10000030A389F4E600BF00FCFF7F2DE9F041FD
:102D200010F53877884619D000267D68BC68013DCB
:102D30000ED4A389013D012B06D9B4F90E302046EB
:102D4000013301D0C04706436B1C04F16804F0D185
:102D50003F68002FE9D13046BDE8F0813E4630465D
:102D6000BDE8F0812DE9F84310F5387680468946B4
:102D70001AD000277568B468013D0FD4A389013DBE
:102D8000012B07D9B4F90E3021460133404601D05A
:102D9000C84707436B1C04F16804EFD13668002E66
:102DA000E8D13846BDE8F88337463846BDE8F883B1
:102DB00070B50F4E0F4D761BB61007D0043D0024A2
:102DC000013455F8043F9847A642F9D10A4E0B4DFD
:102DD00006F0E2FE761BB61008D0043D0024013454
:102DE00055F8043F9847A642F9D170BD70BD00BFA9
:102DF00084090010840900108C0900108409001057
:102E0000F0B58B8991B09AB296070C46054637D437
:102E1000B1F90E10002917DB01AAFFF7DFFD00282A
:102E200010DB029B03F47043B3F500514F424F4156
:102E3000B3F5004F2CD0A3894FF4806643F40063B0
:102E4000A3810BE0A3899AB212F0800F43F40063D0
:102E5000A38114BF40264FF48066002728463146E0
:102E600006F0BAF8A389002829D01B4A43F0800352
:102E7000EA63A381206020616661A7B911B0F0BD4B
:102E800001F1430301220B600B614A6111B0F0BDF7
:102E9000124AA36A9342CED1A3894FF4806633438A
:102EA000A381E664DAE72846B4F90E1003F07CF853
:102EB0000028E3D0A38943F00103A381DEE79A054C
:102EC000DCD404F1430243F002030121A381226018
:102ED00022616161D2E700BF75240000ED3400007B
:102EE000024B0146186806F077B800BF10050010C5
:102EF000024B0146186806F073B800BF10050010B9
:102F0000830770B4C9B240D0541E2AB303788B42F1
:102F100023D0431C04E0FCB1057814468D421CD03C
:102F200013F0030F184604F1FF3203F10103F2D14D
:102F3000032C14D8651E54B303788B420DD0421C69
:102F4000002302E004788C4207D0AB42104603F124
:102F5000010302F10102F5D1002070BC704741EA83
:102F60000126034646EA06461A6818467240A2F150
:102F7000013525EA020212F0803F03F10403D9D1A2
:102F8000043C032C1846EFD8D4E71446D0E720467B
:102F9000E3E700BF844641EA000313F0030349D18D
:102FA000403A23D30B6803604B6843608B688360AF
:102FB000CB68C3600B6903614B6943618B698361B3
:102FC000CB69C3610B6A03624B6A43628B6A83629B
:102FD000CB6AC3620B6B03634B6B43638B6B836383
:102FE000CB6BC36340304031403ADBD230320BD33D
:102FF0000B6803604B6843608B688360CB68C36079
:1030000010301031103AF3D20C3205D351F8043B92
:1030100040F8043B043AF9D2043208D0D2071CBF6E
:1030200011F8013B00F8013B01D30B880380604697
:10303000704700BF082A13D38B07B1D010F00303E9
:10304000AED0C3F10403D21ADB071CBF11F8013B59
:1030500000F8013BA4D331F8023B20F8023B9FE784
:10306000043AD9D3013A11F8013B00F8013BF9D2F7
:103070000B7803704B7843708B7883706046704791
:103080008842F0B410D98C18A0420DD28518531E76
:1030900042B121462A4611F8014D013B02F8014D8B
:1030A0005C1CF8D1F0BC70470F2A44D940EA0103F8
:1030B0009B0744D1A2F110073F0900EB0716103619
:1030C0000C4603462568103343F8105C65681034DD
:1030D00043F80C5C54F8085C43F8085C54F8045C52
:1030E00043F8045CB342EDD17B1C02F00F0C1B01D2
:1030F000BCF1030F1944034423D90E461D46644610
:1031000056F8047B043C032C45F8047BF8D8ACF15A
:10311000040424F00304043402F003022344214491
:10312000002ABFD01A4411F8014B03F8014B934217
:10313000F9D1F0BC70470346002AF3D1B2E7034649
:10314000F0E76246002AEDD1ACE700BFF0B4840797
:1031500043D0541E002A3ED0CDB2034603E0621E87
:10316000002C38D0144603F8015B9A07F7D1032CE2
:103170002AD9CDB245EA05250F2C45EA054515D9D2
:10318000A4F110073F0903F1100606EB07161A46D3
:10319000156055609560D5601032B242F8D104F0E8
:1031A0000F040137032C03EB07130DD91E462246EB
:1031B000043A032A46F8045BFAD8221F22F00302DD
:1031C0000432134404F003042CB1C9B21C4403F8C4
:1031D000011BA342FBD1F0BC704714460346C6E76F
:1031E00070B5084C06460025084611461A4625606B
:1031F000FDF75AFC431C00D070BD2368002BFBD0A8
:10320000336070BDD40C0010024B00211B68C3E971
:103210002A0170471005001030B40C4B0C4D1C688F
:103220000C49D4F8A820D4F8AC0005FB02F5A2FBA9
:10323000012301FB005101320B4443F10003C4E9B7
:103240002A2323F0004030BC704700BF1005001057
:103250002DF451582D7F954C838903F00903092BD8
:1032600001D000207047FFF7F3B800BFF8B50C4657
:10327000054610B1836B002B45D0A28993B2990407
:1032800007D4636E42F4005223F400536366A281B4
:1032900093B200219F06616032D45E0721D5216B75
:1032A00061B104F14003994202D0284605F098FE2E
:1032B000E36B002063602063002B3FD12369002B68
:1032C0004CD0A689B7B2BB0720D12269284622601C
:1032D000256AE1696369A8470028606009DD00206C
:1032E000F8BDD8063FD519072BD442F00402A281BD
:1032F000E4E71CD0A289002342F04002A28163606F
:103300004FF0FF30F8BDFFF7D3F8B6E71A4A0123B4
:103310001068A381194907F00907FFF7FFFC092F7F
:10332000A681D2D128462146FEF7D8FFCDE7A38952
:103330004FF0FF3043F02003A381F8BDA36B23605F
:10334000F8BD28462146FFF76DF80028D8D1A2899C
:10335000A06022F00802A06192B2C6E7284621468A
:10336000FFF74EFDADE742F0400209232B604FF01E
:10337000FF30A281F8BD00BFC4A400005932000094
:1033800000290CBF022200224FF4806300F000B835
:103390002DE9F0413C4D04462D68884616461F46EF
:1033A00015B1AB6B002B4FD0022E30D8002F2EDB87
:1033B00028462146FFF736F8A38900226260A26101
:1033C0001A0628D423F083039BB2022EA3812DD0AA
:1033D000B8F1000F3CD0012E13D09BB203F00800CF
:1033E0002A4A80B2EA63C4F80080C4F8108067619A
:1033F00078B113F0030F18BF0027A7600020BDE8C5
:10340000F08143F001037A42A381A261E5E74FF026
:10341000FF30BDE8F0812846216905F0E1FDA38970
:10342000022E23F083039BB2A381D1D1002004F1AB
:10343000430243F0020300250121A381A56022601D
:1034400022616161BDE8F0812846FFF731F8ABE702
:10345000002F08BF4FF480673846FFF741FD8046D4
:1034600028B1A38943F080039BB2A381B3E74FF453
:103470008060FFF735FD804618B9A3894FF0FF3013
:10348000D5E74FF48067ECE71005001075240000C5
:1034900010B50C46B1F90E1003F0C4F8002803DB98
:1034A000236D0344236510BDA38923F48053A381B6
:1034B00010BD00BF2DE9F0410C4689891D46CB05A2
:1034C0001646074606D5B4F90E100022022302F074
:1034D0008BFDA18921F48051A1813846B4F90E10E9
:1034E00032462B46BDE8F04101F0E6BC10B50C4673
:1034F000B1F90E1002F078FDA389421C0EBF23F42F
:10350000805343F480532065A38110BDB1F90E10A0
:1035100001F048BD80EA010C1CF0030F37D110F018
:10352000030C20F0030021F0030150F8042B08BF26
:1035300051F8043B0ED08CF0030C6FF07F434FEA40
:10354000CC0C23FA0CFC51F8043B42EA0C0243EA8F
:103550000C0300BFA2F1013C9A4201BF2CEA020C0D
:103560001CF0803F50F8042B51F8043BF2D04FEA96
:1035700002604FEA1222012828BFB0EB036F08BF98
:103580001B0AF4D003F0FF03000EC01A704710F0BE
:10359000030F0AD010F8012B11F8013B012A28BFB4
:1035A0009A42F4D0A2EB030070474DF8045D50F846
:1035B000042B01F0030521F0030151F8043B022D17
:1035C00026D04DD822F07F45B5EB132FA2F1013C58
:1035D0002CEA020C0DD11CF0803C08BF51F8043BD2
:1035E0000AD185EA0205B5EB036F0CD150F8042B24
:1035F000E8E74FEA13235BE03CF07F4C54D10B78B3
:103600004FEA126554E04FEA126503F0FF034FE002
:103610004FEA0245A2F1013C4FEA15452CEA020CA3
:10362000B5EB134F18D11CF0803C08BF51F8043B98
:1036300007D185EA0205B5EB034F09D150F8042BF9
:10364000E6E75FEA0C4C2FD10B884FEA12452FE0DA
:103650004FEA03434FEA12454FEA134328E000BF05
:1036600002F0FF05B5EB136FA2F1013C2CEA020C4E
:103670000DD11CF0803C08BF51F8043B0AD185EA0B
:103680000205B5EB032F0AD150F8042BE8E74FEA07
:1036900013630DE012F0FF0F06D051F8043B4FEA20
:1036A000122523F07F4303E04FF0000020BC704759
:1036B00005F0FF0203F0FF00012828BF904204BF7D
:1036C0002D0A1B0AF4D0A2EB000020BC704700BFFB
:1036D00020F0030110F00300C0F1000051F8043B9A
:1036E00000F1040C4FEACC0C6FF000021CBF22FA70
:1036F0000CF213434FF0010C4CEA0C2C4CEA0C4C2E
:10370000A3EB0C0222EA030212EACC1204BF51F826
:10371000043B0430F4D0C2F1000102EA0102B2FA23
:1037200082F2C2F11F0200EBD200704730B4002ACF
:103730004AD040EA010313F003032DD1032A2BD909
:1037400004680D68AC4227D1043A3DD0A4F101359C
:1037500025EA040414F0803F3CD10C4603460EE0F9
:103760005B686468A3F10135A34225EA030513D120
:10377000043A29D015F0803F29D103460C46032A8C
:1037800000F1040001F10401EAD8551E2AB91879A4
:103790002279801A30BC7047551E03780A7893420C
:1037A0001AD1DDB1B3B16C1C0C448B1C014604E092
:1037B000A3420CD001330028ECD011F8010F13F80C
:1037C000012C9042F4D0E4E7104630BC7047002052
:1037D00030BC70471846DDE71846DAE72846D9E7D7
:1037E0002DE9F04FC9B01C4689460A920D9002F0AF
:1037F000F7FB00680F941590FFF76AFF0D9D189076
:103800001DB1AB6B002B00F00981B9F80C2093B20D
:103810009F040AD4D9F8641042F4005321F40051F3
:10382000A9F80C30C9F864109BB21E0740F1C080A3
:10383000D9F81020002A00F0BB8003F01A030A2BED
:1038400000F0C28038ACA44608942B9400250024D4
:10385000CDE91645002311932D932C931A931993B8
:10386000109366460A9D2B78002B00F0DB80252BF9
:1038700000F0D8806A1C02E0252B00F08B801378C2
:1038800014460132002BF7D10A98251A7DB12C9BE2
:103890002D9A01330A982A44072B86E821002D929D
:1038A0002C9300F3A48008361099294410912378B2
:1038B000002B00F0A4800023651C94F801804FF0D9
:1038C000FF341A468DF88F300E9309930A950B94A6
:1038D0002B460133A8F12001582900F2F483DFE8D8
:1038E00011F03802F203F2030303F203F203F203CE
:1038F000F203F203F2033F023402F20360003503E5
:10390000F20376037D037D037D037D037D037D0349
:103910007D037D037D03F203F203F203F203F2035E
:10392000F203F203F203F203F20352039D03F203E4
:103930009D03F203F203F203F2038E03F203F20398
:10394000D003F203F203F203F203F203A302F20341
:10395000F203C302F203F203F203F203F203F203EF
:10396000F203F203F203F2030A031C039D039D0317
:103970009D03D9021C03F203F203E202F203EE02FA
:103980000A021C024B02F2035402F203A300F203E8
:10399000F2037B020A99651A78E70E9C0F91644244
:1039A0000E94099D45F00405099593F8008090E771
:1039B0000D98494601F094FAA0B9B9F80C3003F01B
:1039C0001A030A2B7FF43EAFB9F90E30002BFFF635
:1039D00039AF0D9849460A9A234601F09FF949B03C
:1039E000BDE8F08F4FF0FF3049B0BDE8F08F0D9883
:1039F00049462BAA04F0FEF840B938AE54E72D9B97
:103A000023B10D9849462BAA04F0F4F8B9F80C300C
:103A10005B06E7D4109849B0BDE8F08F2846FEF762
:103A200047FDF2E60A9C42E7099C0A93A20640F190
:103A300006820F9DEB1D23F0070303F1080CD3E969
:103A40000045CDF83CC001234FF0000A8DF88FA04F
:103A50000B99002905DBDDF824C02CF0800CCDF893
:103A600024C054EA050040F047830B99002940F038
:103A70004383002B40F0B984DDF824C01CF0010F13
:103A800000F0B38448AF3023089D07F8413DEC1B9C
:103A9000DDF82CC000256445A8BFA446CDF830C091
:103AA0001495BAF1000F02D00C9D01350C95099BBD
:103AB00013F00203129302D00C9D02350C95DDF831
:103AC00024C01CF0840CCDF84CC040F012830E9D35
:103AD000DDF830C0CCEB050BBBF1000F40F30983E0
:103AE000BBF1100F2D992C9ADFF828A527DD1B9725
:103AF00010255746A2460D9C06E0ABF1100BBBF11A
:103B0000100F06F1080617DD01321031072A2D913A
:103B10002C9237607560F0DD204649462BAA04F0F0
:103B200069F800287FF472AFABF1100BBBF1100FF6
:103B30002D992C9A38AEE7DC5446BA461B9F0132C9
:103B40000BEB010C072ACDF8B4C02C9286E8000CD0
:103B500000F39A849DF88FA00836BAF1000F0FD0B9
:103B60002C9B0CF1010C01330DF18F010122072B6D
:103B7000CDF8B4C02C9386E8060000F31C84083608
:103B8000129B73B12C9B0CF1020C013324A902226D
:103B9000072BCDF8B4C02C9386E8060000F31884F8
:103BA0000836139D802D00F048830B9A151B002DBD
:103BB0003DDD102D2C9BDFF860A42CDD51460B94CD
:103BC000AA464FF0100B62460D9C0D4606E0AAF186
:103BD000100ABAF1100F06F1080617DD0133103292
:103BE000072B2D922C9386E82008F0DD20464946CD
:103BF0002BAA03F0FFFF00287FF408AFAAF1100AF8
:103C0000BAF1100F2D9A2C9B38AEE7DC94460B9C32
:103C10002A46554692460133AC44072BCDF8B4C032
:103C20002C93C6F800A0756000F3B9830836099D8F
:103C3000EB0500F1A2822C9BA4440133072BCDF8A5
:103C4000B4C0376074602C9300F393830836099CEA
:103C5000620740D50E9D0C982C1A002C3BDD102CD1
:103C60002C9BDFF8B0A322DD10256246DDF83480FE
:103C7000574604E0103C102C06F1080615DD013310
:103C80001032072B2D922C9337607560F2DD404681
:103C900049462BAA03F0AEFF00287FF4B7AE103CD4
:103CA000102C2D9A2C9B38AEE9DC9446BA46013391
:103CB000A444072BCDF8B4C02C93C6F800A07460C0
:103CC00009DD0D9849462BAA03F094FF00287FF4E4
:103CD0009DAEDDF8B4C0109C0C980E9DA842ACBF00
:103CE000241864191094BCF1000F40F04E83002397
:103CF0002C9338AEB6E5DDF824C00A931CF02003FF
:103D000000F0CA810F9CE31D23F0070303F10805AF
:103D10000F95D3E90045002396E6DDF824C00F9DFA
:103D20000A930F9BB94804351C684FF0780830237C
:103D30004CF0020C0F958DF89030CDF824C0002582
:103D40008DF891801A9002237EE693F800802B2252
:103D5000BFE593F80080002A7FF4BBAD2022B8E5D0
:103D60000F9C0F9D2468291D002C0E94FFF615AEA4
:103D70000F9193F80080ACE5DDF824C04CF0200CE6
:103D8000CDF824C093F80080A3E50F9C4FF0000A03
:103D900027680A938DF88FA0251D002F00F05C8600
:103DA0000B9C3846002CC0F2078651462246FFF78E
:103DB000A7F8002800F09C860B9CC01BA042B8BF4F
:103DC00004460F9524EAE475CDF82CA0CDF850A058
:103DD0000C959DF88FA064E6099D8C4CAF060A9364
:103DE0001A948DF88F2047D5DDF83CC00CF10703FD
:103DF00023F0070303F108040F94D3E90045DDF82D
:103E000024C01CF0010F00F0F48254EA050000F019
:103E1000F08230234CF0020C8DF890308DF89180B8
:103E2000CDF824C002230FE6DDF824C00A934CF03D
:103E3000100CCDF824C0099CA2063FF5FAAD099CF0
:103E4000E30600F13083DDF824C01CF0400F00F0E1
:103E50002A83DDF83CC00025BCF800400CF1040CBE
:103E60000123CDF83CC0EFE5099D694CAF060A93EC
:103E70008DF88F201A94B7D4099DED0640F1C984BE
:103E8000DDF83CC00025DCF800400CF1040CCDF856
:103E90003CC0B4E7DDF824C04CF0400CCDF824C0A1
:103EA00093F8008015E593F800801946B8F16C0F7F
:103EB00000F06D85099D45F01005099509E5DDF8CF
:103EC00024C00A931CF0200F8DF88F2000F0B084DE
:103ED0000F9C2168109CE5172B460F9D2246043548
:103EE0000F95C1E90023BDE4099D45F00105099541
:103EF00093F80080EDE40A930F9B0F9D1A6801244C
:103F0000002304359A460C948DF8B8200F958DF84F
:103F10008F300B9314932EAFC9E5099C0A93A50625
:103F20008DF88F203BD50F9DE91D21F00701D1E9C8
:103F3000002308310F9114461D46002A73F1000C2E
:103F4000C0F2CA839DF88FA0012381E593F8008019
:103F5000581CB8F12A0F00F0AE86A8F130010929EB
:103F600098BF002300F20C8610F8018B03EB83034B
:103F700001EB4303A8F130010929F5D943EAE373C2
:103F80000B930346A6E4DDF824C00A934CF0100C12
:103F9000CDF824C0099C8DF88F20A506C3D4DDF888
:103FA00024C01CF0100F40F0B082DDF824C01CF0DB
:103FB000400F00F0AA82DDF83CC0BCF900400CF1D3
:103FC000040CE51722462B46CDF83CC0B5E7099D09
:103FD00045F08005099593F800807AE40024A8F163
:103FE00030010E94204613F8018B00EB800001EBAA
:103FF0004000A8F130010929F5D90E906AE4099D25
:1040000045F00805099593F8008062E4FCA40000DF
:10401000E8A400001CA50000C8A400000F9D0A939E
:10402000EB1D23F0070303F1080C8DF88F20CDF86A
:104030003CC0D3E90045CDE91645DDE9160102F0A3
:1040400005FB0128DDE9160140F050830022002322
:1040500004F01CFB002840F031859DF88FA003255B
:104060000C95099D9E4F25F080059E4B00240995D7
:1040700000250B94B8F1470FD8BF1F4603241495B1
:104080000FE5099D0A9345F010050995DDF824C058
:104090001CF020037FF436AEDDF824C01CF01002C3
:1040A00040F03B82DDF824C01CF0400300F0358274
:1040B000DDF83CC01346BCF800400CF1040C0025B0
:1040C000CDF83CC0C0E40A938DF88F20B8F1000F02
:1040D0003FF495AC00234FF0010C9A46CDF830C068
:1040E0008DF8B8808DF88F300B93149364462EAF03
:1040F000DDE4DDF8B4C030E5012B00F0E380022BF5
:104100000DF1DF0318D1DDF868C0194604F00F0087
:1041100022091CF8000042EA05722B09087052EAD5
:1041200003000F4614461D4601F1FF31EED1089DF4
:10413000CDE91E23EC1BABE4E00840EA457004F037
:104140000702E908303250EA010C1F461A70044693
:104150000D4603F1FF33EFD1099CCDE91C01E007C7
:10416000394640F1B880302A00F0B580089D1F46DE
:104170003023EC1B01F8013C8AE4B8F1650F40F3F1
:10418000B780DDE9160100220023CDF81CC004F041
:1041900073FADDF81CC0002800F02E812C9B5249D8
:1041A00001330CF1010C0122072BCDF8B4C02C9384
:1041B00086E8060000F361830836259B119CA34224
:1041C00003DB099DEF077FF542AD2C9B189C013363
:1041D000159DA444072BCDF8B4C0356074602C93B2
:1041E00000F3DE830836119D6C1E002C7FF72FAD87
:1041F000102C2C9BDFF8F4A040F398811025624628
:10420000DDF83480574604E00836103C102C40F3AB
:104210008B8101331032072B2D922C933760756000
:10422000F2DD404649462BAA03F0E4FC00287FF467
:10423000EDAB2D9A2C9B38AEE7E70E980C99451AFA
:10424000002D7FF7B2AC102D2C9BDFF8A0A02CDD49
:1042500051461294AA464FF0100B62460D9C0D4633
:1042600006E0AAF1100ABAF1100F06F1080617DDF0
:1042700001331032072B2D922C9386E82008F0DDB5
:10428000204649462BAA03F0B5FC00287FF4BEABBC
:10429000AAF1100ABAF1100F2D9A2C9B38AEE7DC68
:1042A0009446129C2A46554692460133AC44072B4D
:1042B000CDF8B4C02C93C6F800A0756000F3FF8160
:1042C000083672E4002D08BF0A2C80F03B813034A0
:1042D00048AF07F8414D089DEC1BFFF7D9BB00BF65
:1042E000DCA40000D8A4000018A50000C8A40000A9
:1042F000119C012C2C9C40F3A48101340CF101058C
:104300000123072C2D952C943760736000F3B48142
:1043100008361898013415990544072C2D952C94CE
:104320003160706000F3B4810836DDE916010022C7
:10433000002304F0A1F9002840F0BD80119A013457
:10434000531E01371D44072C2C942D953760736044
:1043500000F386810836DDF864C00134AC44199D51
:1043600027AB072CCDF8B4C02C9486E828007FF743
:104370006DAC0D9849462BAA03F03CFC00287FF455
:1043800045ABDDF8B4C038AE61E40D9849462BAAC0
:1043900003F030FC00283FF4AAACFFF737BB0D98C0
:1043A00049462BAA03F026FC00287FF42FABDDF84A
:1043B000B4C038AE3BE40D9849462BAA03F01AFC72
:1043C00000287FF423ABDDF8B4C038AEFFF7D8BBCC
:1043D0000D9849462BAA03F00DFC00287FF416AB7C
:1043E000DDF8B4C038AEFFF7DCBB0B9C38AFFFF78D
:1043F0004FBB0223FFF728BB259B002B40F34982CC
:10440000119C149DDDF84480AC42A8BF2C46002CC2
:10441000B8440BDD2C9BA4440133072BCDF8B4C06A
:10442000376074602C9300F3F0820836149D24EA00
:10443000E4742C1B002C40F3AD80102C2C9BDFF877
:10444000D8A640F30D8251461025BA466246DDF8E3
:1044500034B00F4604E00836103C102C40F3FC81C9
:1044600001331032072B2D922C9337607560F2DDEB
:10447000584649462BAA03F0BDFB00287FF4C6AA84
:104480002D9A2C9B38AEE7E70D9849462BAA03F0EE
:10449000B1FB00287FF4BAAA9DF88FA0DDF8B4C064
:1044A00038AEFFF75ABB0F9D01232C6804350F95DA
:1044B0000025FFF7C9BA119B5F1E002F7FF74BAF96
:1044C000102FDFF854A640F3EF804FF01008DDF80E
:1044D00034B004E00836103F102F40F3E58001347B
:1044E0001035072C2D952C94C6F800A0C6F8048032
:1044F000F0DD584649462BAA03F07CFB00287FF4E8
:1045000085AA2D9D2C9C38AEE5E70F9D2C680435BF
:104510000F95E51722462B460FE50F9D2C680435B5
:104520000F950025FFF790BA9446BA460133A4448C
:10453000072BCDF8B4C02C93C6F800A074607FF7A9
:1045400085AB16E70DF1DF0B204629460A22002332
:1045500004F062FA30328BF80020204629460A2205
:10456000002304F059FA04460D4654EA050C5F4650
:104570000BF1FF3BE8D1089DEC1BFFF789BA0D98C2
:1045800049462BAA03F036FB00287FF43FAADDF84A
:10459000B4C038AE149D259C2F44119DAC4240DB25
:1045A000099DE8073DD41198C7EB0805041BAC42F0
:1045B000B8BF2546002D0BDD2C9BAC440133072BE7
:1045C000CDF8B4C0376075602C9300F35482083680
:1045D00025EAE575641B002C7FF739AB102C2C9B6A
:1045E000DFF834A5A2DD10256246DDF83480574699
:1045F00003E00836103C102C96DD01331032072BF7
:104600002D922C9337607560F3DD404649462BAA06
:1046100003F0F0FA00287FF4F9A92D9A2C9B38AE0C
:10462000E8E7189D2C9BAC44159D01333560189D1F
:10463000072BCDF8B4C075602C9300F300820836C8
:10464000B1E7099DE9073FF558AE01340CF10105CA
:104650000123072C2D952C94376073607FF77AAE79
:104660000D9849462BAA03F0C5FA00287FF4CEA97D
:104670002D9D2C9C38AE6EE60D9849462BAA03F072
:10468000B9FA00287FF4C2A92D9D2C9C38AE40E6D3
:104690000D9849462BAA03F0ADFA00287FF4B6A97D
:1046A0002D9D2C9C38AE40E601343D44072C2D95C1
:1046B0002C94C6F800A077607FF74CAED0E70D9839
:1046C00049462BAA03F096FA00287FF49FA9DDF84B
:1046D000B4C038AEFFF769BA4FF02D0A644265EBFB
:1046E00045058DF88FA00123FFF7B2B901F0AEFFA9
:1046F000002800F01B810B9D28F0200A013500F0F6
:104700006C82BAF1470F04D10B9D002D08BF012523
:104710000B95DDF824C0DDE916234CF4807C002BDA
:10472000CDF848C0C0F25082DDE91645CDE92045FC
:104730004FF0000BB8F1660F00F03482B8F1460F6D
:1047400000F08C82BAF1450F0ABF0B9C0B9D651CD3
:10475000022025A926AA29AB8DE821000392049303
:1047600002910D98DDE9202300F0CAFCB8F1670F33
:10477000074602D0B8F1470F05D1DDF824C01CF080
:10478000010F00F03B82BAF1460F07EB050400F081
:10479000A881DDE920010022002303F06DFF00283D
:1047A00040F09D81299B9C4206D930215A1C2992B8
:1047B0001970299B9C42F9D8DB1BBAF1470F119362
:1047C00000F07481B8F1650F40F39482B8F1660F80
:1047D00000F00682259C1494119C149DAC4200F3B9
:1047E000D481DDF824C01CF0010F40F0538225EA8B
:1047F000E5732C464FF06708BBF1000F40F0648171
:10480000129D0C930995CDF82CB09DF88FA0FFF761
:1048100048B9099C640640F1A680DDF83CC000253B
:10482000BCF800400CF1040CCDF83CC0FFF7E7BA2F
:10483000DDF824C01CF0100F40F08D80DDF824C09E
:104840001CF0400F00F026810F9C109D236804345B
:104850000F941D80FFF706B894463A465746924695
:104860000133A444072BCDF8B4C02C93C6F800A0A4
:1048700074603FF784AE08368CE60D9849462BAA43
:1048800003F0B8F900287FF4C1A8DDF8B4C038AE51
:1048900093E42C9A9C4901320CF1010C0120072A67
:1048A000CDF8B4C02C923160706063DC08361C46D1
:1048B0002CB9119D1DB9099DED077FF5C8A92C9B49
:1048C000159D189A01333560189D6244072B2D926F
:1048D00075602C9300F3478108366442002C40F346
:1048E0008680102CDFF830A240F39E8051461025C0
:1048F000BA46DDF834800F4604E00836103C102C30
:1049000040F38F8001331032072B2D922C933760A8
:104910007560F2DD404649462BAA03F06BF900288A
:104920007FF474A82D9A2C9B38AEE7E7099C774F4B
:10493000774B4FF0030C24F0800409940B90CDF8D2
:1049400030C01490B8F1470FD8BF1F4664469DF899
:104950008FA0FFF7A6B80F9C109D236804340F9416
:104960001D60FEF77FBF0F9D2C6804350F95002555
:10497000FFF745BA0D9849462BAA03F03BF90028EA
:104980007FF444A8259CDDF8B4C038AE90E7099CBC
:10499000013344F02004099491F80180FEF799BF97
:1049A0000D9849462BAA03F025F900287FF42EA87C
:1049B000DDF8B4C038AE16E4CDF82CA0FEF788FEC2
:1049C0000F950B9D20EAE07C0446CDF830C014958D
:1049D0009DF88FA0FFF765B80D9849462BAA03F004
:1049E00009F900287FF412A82D9A2C9B38AEDDF827
:1049F00044C00133119C9444072BCDF8B4C02C93D0
:104A0000376074607FF722A9B3E40D9849462BAA5A
:104A100003F0F0F800287EF4F9AFDDF8B4C038AE4A
:104A200004E5394657468A4601332244072B2D9226
:104A30002C93C6F800A07460CEDC0836D7E70D983A
:104A400049462BAA03F0D6F800287EF4DFAF259C58
:104A5000DDF8B4C038AEA6E50B9CBA46062C28BFDC
:104A6000062424EAE47C0B9714970F95CDF830C008
:104A7000284FFFF716B80D9849462BAA03F0BAF84D
:104A800000287EF4C3AF259C1199DDF8B4C00C1B3F
:104A900038AE9DE5DDF83CC0109CDCF800300CF130
:104AA000040CCDF83CC01C60FEF7DCBE259BDC1C72
:104AB00034DB0B9C9C4231DB14938DE64FF02D0AC6
:104AC0008DF88FA0FFF7CBBA129D4FF02D0A0995F4
:104AD00000250C938DF88FA00B95FEF7E5BF2346BC
:104AE0006AE63B78302B00F0C080259D2C4450E6D0
:104AF00024EAE47CCDF830C00B9C0F950B90149009
:104B00009DF88FA0FEF7CDBF18A50000E4A400001B
:104B1000E0A4000010A50000C8A40000A8F102084D
:104B2000591E00292591BABF49422D232B2309295B
:104B30008DF89C808DF89D3062DC302330318DF80B
:104B40009E308DF89F1028AB119D27AA119C9A1AB0
:104B5000012D1992144440F3A4800134002524EA65
:104B6000E473149548E60D9849462BAA03F042F8E1
:104B700000287EF44BAF259C2D9A2C9B38AEACE6DA
:104B8000002403460B94FEF7A5BE149C119D002C37
:104B9000D4BFC4F1020401242C4424EAE4734FF08E
:104BA000670829E60B9C032025A926AA29AB0194B6
:104BB00000900392049302910D98DDE9202300F008
:104BC0009FFA0B9D0746DEE51799169801F1004103
:104BD000209021914FF02D0BACE506240B9498E525
:104BE000259D0B9C002D149578DD002C4BD1099D43
:104BF000E80748D4149C24EAE473FDE5299BDBE52F
:104C00000DF1AA023E4DCB1785FB0150C3EBA0006E
:104C100000EB8003A1EB43010928134601F13002A8
:104C20001A70014603F1FF32ECDC00F130010DF1A6
:104C3000AB04C9B2944203F8011C5DD90DF19D008B
:104C40001A4601E012F8011BA24200F8011FF9D137
:104C50000DF5907CC3EB4C03F63B75E70B9D0320F1
:104C600025A926AA29AB0195A2E7DDE920010022AA
:104C7000002303F001FD00287FF437AFC5F10105E3
:104C800025952C4485E50B9D6C1C149D2C4424EA31
:104C9000E473B1E5149D4FF067086C1C24EAE473DB
:104CA000AAE5DDF824C01CF001037FF456AF14938D
:104CB00024EAE473A0E50F9DDDF83CC02D680CF1FB
:104CC0000401002D93F801800B950F910346BEF669
:104CD00000AE4FF0FF340B94FEF7FBBD2CB9099DDD
:104CE000E90702D401231C4686E50B9DAC1C24EA8F
:104CF000E47381E5259B13E70DF19E0324E700BFD4
:104D00006766666630B4044C0D46134601462A4673
:104D1000206830BCFEF764BD100500102DE9F04797
:104D20004F6EADF58D6D88461997D8F81C70B1F8A7
:104D30000CA0B1F80E900797D8F824701AAC4FF475
:104D400080652AF0020A00266946009404940295C0
:104D50000595ADF80CA0ADF80E900997069605469E
:104D6000FEF73EFD041E07DB28466946FDF75AFBA9
:104D7000B04218BF4FF0FF34BDF80C305B0605D5CC
:104D8000B8F80C3043F04003A8F80C3020460DF57D
:104D90008D6DBDE8F08700BFF0B5141E9BB00646D0
:104DA0001EDB4FF4027214BF04F1FF35254600915B
:104DB0000491ADF80C204FF6FF771A466946209B08
:104DC00002950595ADF80E7001F068FC431CBCBF60
:104DD0008B22326014B1009A002111701BB0F0BD1B
:104DE0008B2303604FF0FF30F8E700BF70B5074C2E
:104DF00082B006460D4620681446009331462A4686
:104E00002346FFF7C9FF02B070BD00BF10050010B8
:104E1000F8B50D461446074610B1836B002B48D0F9
:104E2000A289A06993B2A060180738D52669002E20
:104E300035D09904EDB215D5236862699E1B964260
:104E40001CDA0136A268591C013AA26021601D706B
:104E50006369B3421AD0A389DB0701D50A2D15D0A7
:104E60002846F8BD636E42F4005223F40053636693
:104E70002368A28162699E1B9642E2DB3846214686
:104E8000FDF7D0FA40B923680126DBE73846214612
:104E9000FDF7C8FA0028E3D04FF0FF30F8BD3846E0
:104EA000214600F01DF80028F6D1A289266993B2A8
:104EB000BFE7FDF7FDFAB3E770B5084C06460025DD
:104EC000084611461A462560FBF784FC431C00D0B7
:104ED00070BD2368002BFBD0336070BDD40C001074
:104EE0002F4B70B5064618680C4610B1826B002A2D
:104EF00036D0A589ABB219070CD52269AAB113F037
:104F000001011ED0636900215B42A361A160F2B17F
:104F1000002070BDDA063AD55B0724D4226945F03B
:104F20000803A3819BB2002AE9D103F42071B1F5F3
:104F3000007FE4D030462146FDF762FFA389226955
:104F4000DDE7980758BF6169A160002AE0D1A38915
:104F50001A06DDD543F04003A3814FF0FF3070BD4A
:104F6000FDF7A6FAC5E7216B49B104F14003994268
:104F700003D0304604F034F8A58900232363226966
:104F800025F024050021ADB222606160C7E745F03D
:104F90004005092333604FF0FF30A58170BD00BF8D
:104FA0001005001038B5074C00230546084623605D
:104FB000FBF7F0FB431C00D038BD2368002BFBD06F
:104FC0002B6038BDD40C00102DE9F04F03690D693A
:104FD00083B09D42834600F38C80013D01F11404AF
:104FE00000F1140A54F825205AF825300132B3FB99
:104FF000F2F8AA00914600925244A1440192B8F1FD
:10500000000F3ED000263046224653468C4652F8CA
:10501000047B19681FFA87FE3F0C0EFB086E07FB26
:1050200008F606EB1E461FFA8EFECEEB000E8FB280
:10503000B0B27744C0EB114000EB2740BFB247EA63
:105040000047914543F8047B4FEA20404FEA16465B
:10505000DDD2009A61465AF8023093B9019A131FC3
:105060009A450CD252F8043C4BB9A2F1080302E075
:105070001A68043B1AB99A4505F1FF35F8D3CBF805
:105080001050584601F0E0F900282EDB08F1010825
:105090005346002254F8046B1868B1B2511A87B213
:1050A000360C3944C6EB104000EB214289B241EA8C
:1050B0000241A14543F8041B4FEA2242EAD25AF8C2
:1050C00025200AEB850382B91A1F92450BD253F8AB
:1050D000042C42B9083B02E01A68043B1AB99A450D
:1050E00005F1FF35F8D3CBF81050404603B0BDE8CA
:1050F000F08F002003B0BDE8F08F00BF000000007B
:105100002DE9F04F016C9BB0044692469B46279DCB
:1051100041B1436C01229A404B608A6000F09EFFCF
:1051200000232364BBF1000FD94633DB00232B603F
:10513000A54B1A4609EA0303934214D05046594638
:105140000022002303F098FA804648B3269E289D4B
:1051500001233360002D00F0CA809C48286001388C
:105160001BB0BDE8F08F269D42F20F732B60BAF1A1
:10517000000F00F0A5809648289E002EF0D0C3783E
:10518000002B00F0B68000F10803289D2B601BB0B7
:10519000BDE8F08F01232BF000492B60CB46C7E719
:1051A00019AA18AB8DE80C00204652465B4601F068
:1051B000DBF95FEA19550A9040F08B80189F199D22
:1051C0006FF482633D449D42C0F295821F3305F225
:1051D00012425B1B09FA03F32AFA02F243EA0200C5
:1051E00002F06CFF0126013DB846A1F1F871169658
:1051F0000022784B02F024FE6DA3D3E9002302F0D5
:10520000D3FF6DA3D3E9002302F01CFE0646284617
:105210000F4602F063FF6AA3D3E9002302F0C4FF44
:1052200002460B463046394602F00CFE06460F4653
:1052300003F054FA3946079000223046002303F069
:1052400025FA002840F02982079E162E00F22282BD
:105250006149524601EBC6015B46D1E9000103F00A
:1052600033FA002800F04C82013E079600260E9685
:10527000C5EB0805013D069500F12682002508953D
:10528000079E002EC0F21782069D0D96354400261B
:1052900006950C96249D092D2DD8052DC4BF043DDF
:1052A0002495249EC8BF0025A6F10203D8BF01257E
:1052B000032B22D8DFE813F0B7039E02C0039A0441
:1052C000464A434BC9F3130000280CBF104618464A
:1052D00052E7CBF3130343F07F51CDF8588050468B
:1052E000A5F2FF3541F44011DDF8608080E73C48CD
:1052F00036E7C31C49E70025249500256564294647
:10530000204600F085FE4FF0FF39012609902595D3
:105310002064CDF83C900B96199B002BC0F2D280F4
:10532000079E0E2E00F3CE802B4B03EBC603D3E972
:105330000001CDE9040125990029C0F28083DDE94F
:1053400004235946504603F059F803F0C7F90546BF
:1053500002F0C4FEDDE9042302F026FF02460B46FC
:105360005046594602F06CFD099A05F13003B9F137
:10537000010F06460F46137002F1010B64D00022A4
:10538000184B02F011FF0022002306460F4603F0DF
:1053900073F9002840F08180DDF82480099DC8441D
:1053A000DDE904AB05F10209039428E0AFF30080C6
:1053B00061436F63A787D23FB3C8608B288AC63F1B
:1053C000FB799F501344D33F0000F07F19A50000E4
:1053D00038A500000000F83F48A500002CA50000FB
:1053E00018A500000000244002F0DEFE0022002389
:1053F00006460F4603F040F9002840F0C1835246AC
:105400005B463046394602F0F9FF03F067F905467E
:1054100002F064FE52465B4602F0C6FE02460B46B0
:105420003046394602F00CFD05F1300EC14509F851
:1054300001EC4C4606460F464FF00002A74B09F11F
:105440000109D1D1A346039C32463B46304639463A
:1054500002F0F8FC06460F463246DDE904013B4601
:1054600003F014F940B9DDE9040132463B4603F08C
:1054700003F990B1EB0710D51BF8015C099A05E020
:105480009A4200F0298413F8015C9B46392D0BF1F8
:10549000FF33F5D06A1CD2B21A7020460A9900F088
:1054A000DDFD079E269D731C289E00228BF80020A0
:1054B0002B60002E00F025830998C6F800B01BB0C1
:1054C000BDE8F08F0B9D002D00F00381249E012E7E
:1054D00040F3DC820C9E09F1FF37BE42C0F28983A3
:1054E000F71BB9F1000FC0F28784089D4B46089E58
:1054F00020461E440896069E01211E44069600F092
:105500004FFE064665B10698002809DD0346089956
:10551000AB42A8BF2B46C91AC01A0891ED1A0690D3
:105520000C9A002A1DDD0B9B002B00F05883002FE6
:1055300011DD31463A46204600F0DAFE0646314695
:105540000A9A204600F036FE0A998046204600F06E
:1055500085FDCDF82880DDF830E0BEEB070240F095
:105560008F822046012100F01BFE80460D98002806
:1055700005DD414620460D9A00F0BAFE804624998A
:10558000012940F3C18200270D98002840F0AF8226
:105590000120069B034413F01F0300F0A180C3F118
:1055A0002002042A40F3B7840899069AC3F11C0329
:1055B00019441A4408911D4406920899002905DDF2
:1055C0000A99089A204600F0E1FE0A90069A002AFD
:1055D00004DD4146204600F0D9FE80460E9B002B9C
:1055E00040F06A82B9F1000F40F3A6820B980028C0
:1055F00040F088800B9D0A9FDDF824B006E0394614
:1056000020460A22002300F033FD07463846414673
:10561000FFF7DAFC30300BF805000135A945EEDC68
:10562000DDF824B082460A97B9F1010FACBFCB4434
:105630000BF1010B00250A990122204600F0A6FE7D
:1056400041460A9000F000FF002840F309831BF850
:10565000012C099905E0994200F08B8213F8012C86
:105660009B46392A0BF1FF33F5D001321A704146BF
:10567000204600F0F3FC002E3FF40FAF2DB1B542F1
:1056800003D02946204600F0E9FC3146204600F0D0
:10569000E5FC02E701260E96EAE5079802F01EFDFA
:1056A00032463B4602F0E8FF00287FF4CDAD079E6E
:1056B000013E0796C8E5079E089DAD1B08957542FB
:1056C00000260C950D96E5E56D4200260895069698
:1056D000D6E50C9F089D0B9E14E700BF00002440F8
:1056E0001C23DDF820E006989E441844CDF820E005
:1056F0001D44069061E7A748401B0AFA00F06FE5D9
:105700000E90B5E5002D05DD31462A46204600F015
:105710003DFE0646002F40F0E9823746099D099874
:105720004D4408950AF001050B95DDF82890451CBD
:105730000AE000F09DFC394606460A222046002376
:1057400000F096FC0746013541464846FFF73CFC11
:1057500031468346484600F077FE414603903A467C
:10576000204600F095FEC268691E03460BF1300A20
:105770000691002A40F0938119464846029300F0B2
:1057800063FE029B024619462046029200F066FC28
:10579000029A2AB9249B1BB90B98002800F0938326
:1057A000039B002BC0F2348205D1249818B90B99C1
:1057B000002900F02D82002A00F3AC82DDF820E001
:1057C00005F801AC7545AB4600F0B48249460A22A3
:1057D0000023204600F04CFCBE4281463146204664
:1057E0004FF00A024FF00003A3D100F041FC06463F
:1057F0000746A8E700260B96079EDDF894E0B6441E
:105800000EF10109B9F1000FCDF83CE04E4640F32E
:1058100050810021172E61640AD9012204235B0004
:1058200003F11400B042114602F10102F7D961649C
:10583000204600F0EDFB0E2E099020643FF66CAD83
:10584000002D3FF469AD079DCDE912AB002D40F36B
:105850001C82514B05F00F0203EBC2032D11D3E95B
:105860000067EB0640F1CD814C4B50465946D3E9D9
:10587000082302F0C3FDCDE9100105F00F054FF03C
:1058800003088DB1DFF814A130463946EE0705D57F
:10589000DAE9002308F1010802F086FC6D100AF134
:1058A000080AF3D106460F46DDE9100132463B46B1
:1058B00002F0A4FD82468B460E9D45B150465946E6
:1058C0000022374B02F0E2FE002840F0AA82404658
:1058D00002F004FC52465B4602F066FC0022314BAB
:1058E00002F0B0FA0646A1F15077B9F1000F00F0CE
:1058F0005A81079DC84617950B9D002D00F0238205
:10590000254B002003EBC80353E90223264902F08C
:1059100075FD32463B4602F093FACDE91001594637
:10592000504602F0DBFE054602F0D8FB02460B466D
:105930005046594602F084FA3035099ECDE90401FB
:10594000DDE90423DDE91001EDB2357006F1010B4C
:1059500002F0BAFE002840F0AB82DDE9042300200B
:105960000F4902F06DFA02460B46DDE9100102F024
:10597000ABFE002840F0A282B8F1010F40F3818114
:10598000B044CDF85090A246C146DDE90467DDE998
:10599000104519E0EEFBFFFF48A5000010A600002F
:1059A0000000F03F00001C400000E03F0020A8493C
:1059B00002F046FA22462B4602F068FE002840F02C
:1059C0007B82CB4500F05A81204629460022A14B1C
:1059D00002F0EAFB00229F4B04460D463046394652
:1059E00002F0E2FB0F46064602F078FE804602F027
:1059F00075FB02460B463046394602F021FA08F1A3
:105A000030085FFA88F822462B460BF8018B0646D1
:105A10000F4602F03BFE32463B460028C6D0179E9A
:105A20005446079639E500260B96259800283CDD5C
:105A300006460F908146ECE601260B96F5E7B9F194
:105A4000000F3FF77CAC40F0C680DDE90401002286
:105A5000814B02F0A9FB52465B4602F02BFEC84682
:105A60004E4600287CD0259DDDF824B0ED430795F7
:105A70004146204600F0F2FA002E7FF406AE0CE517
:105A80000A99204600F034FC0A906AE5169D002D24
:105A900000F0B88103F233430C9F089D27E50146CF
:105AA000204600F0DBFA01227AE6012625960F96C1
:105AB000B14600216164BBE60A98414600F0C4FC8F
:105AC0000028BFF68FADDDF81CE00A990EF1FF3E0D
:105AD00020460A220023CDF81CE000F0C9FA0A9003
:105AE0000B98002840F00982DDF83C907AE5D8F860
:105AF000103008EB8303186900F004FBC0F12000AC
:105B000047E50998FFF72CBBBAF1000F7FF43BADD6
:105B1000CBF31303002B40F07C812BF000473F0DAB
:105B20003F05002F3FF430AD089A069B0132013348
:105B300008920693012727E5249902297FF756AD9D
:105B4000B9F1000F8FD141464B460522204600F0A7
:105B50008FFA804641460A9800F076FC002882DDE4
:105B6000079D312301350795099D2B7005F1010B28
:105B70007EE7079809993123013007900B7076E58D
:105B8000A346039C89E4404602F0A8FA02460B466D
:105B90005046594602F008FB0022304B02F052F901
:105BA0000646A1F150775046594600222A4B02F092
:105BB00047F932463B4682468B4602F085FD002877
:105BC00040F0BD80324607F100435046594602F08E
:105BD0005DFD002855D04FF00008464643E70A997E
:105BE0000C9A204600F084FB0A90BAE401260B963A
:105BF00002E60C9D0D9E7B1B1E440C970D96002704
:105C00006FE4DDE912014FF00208CDE9100138E63A
:105C1000002ACDF82890D94611DD0A9901222046A4
:105C200000F0B4FB41460A9000F00EFC002840F35F
:105C30005D81BAF1390F00F01B8109F1310A069B31
:105C4000354683F800A003F1010B3E460FE500BF87
:105C50000000F03F000024400000144000001C4001
:105C600003D11AF0010F7FF4F2AC5B4613F8012C5C
:105C70009B46302A03F1FF33F8D0F8E4DDF850906A
:105C80005446DDE912ABFFF747BB079E7542002D76
:105C900000F0C280A34B05F00F0203EBC203D3E96F
:105CA0000023DDE9120102F07FFA2D1182468B46B6
:105CB00000F02E819C4E4FF00208EA0705D5D6E988
